{
  "_format": "hh-sol-artifact-1",
  "contractName": "FritzTheCoin",
  "sourceName": "contracts/VIP/FritzTheCoin.sol",
  "abi": [
    {
      "inputs": [
        {
          "internalType": "string",
          "name": "name",
          "type": "string"
        },
        {
          "internalType": "string",
          "name": "symbol",
          "type": "string"
        },
        {
          "internalType": "uint256",
          "name": "totalAmount",
          "type": "uint256"
        }
      ],
      "stateMutability": "nonpayable",
      "type": "constructor"
    },
    {
      "anonymous": false,
      "inputs": [
        {
          "indexed": true,
          "internalType": "address",
          "name": "owner",
          "type": "address"
        },
        {
          "indexed": true,
          "internalType": "address",
          "name": "spender",
          "type": "address"
        },
        {
          "indexed": false,
          "internalType": "uint256",
          "name": "value",
          "type": "uint256"
        }
      ],
      "name": "Approval",
      "type": "event"
    },
    {
      "anonymous": false,
      "inputs": [
        {
          "indexed": false,
          "internalType": "address",
          "name": "addr",
          "type": "address"
        },
        {
          "indexed": false,
          "internalType": "uint256",
          "name": "amount",
          "type": "uint256"
        }
      ],
      "name": "MintedTo",
      "type": "event"
    },
    {
      "anonymous": false,
      "inputs": [
        {
          "indexed": true,
          "internalType": "address",
          "name": "previousOwner",
          "type": "address"
        },
        {
          "indexed": true,
          "internalType": "address",
          "name": "newOwner",
          "type": "address"
        }
      ],
      "name": "OwnershipTransferred",
      "type": "event"
    },
    {
      "anonymous": false,
      "inputs": [
        {
          "indexed": true,
          "internalType": "address",
          "name": "from",
          "type": "address"
        },
        {
          "indexed": true,
          "internalType": "address",
          "name": "to",
          "type": "address"
        },
        {
          "indexed": false,
          "internalType": "uint256",
          "name": "value",
          "type": "uint256"
        }
      ],
      "name": "Transfer",
      "type": "event"
    },
    {
      "anonymous": false,
      "inputs": [
        {
          "indexed": false,
          "internalType": "address",
          "name": "addr1",
          "type": "address"
        },
        {
          "indexed": false,
          "internalType": "address",
          "name": "addr2",
          "type": "address"
        },
        {
          "indexed": false,
          "internalType": "address",
          "name": "addr3",
          "type": "address"
        }
      ],
      "name": "dailyRewarded",
      "type": "event"
    },
    {
      "anonymous": false,
      "inputs": [
        {
          "indexed": false,
          "internalType": "address",
          "name": "addr",
          "type": "address"
        }
      ],
      "name": "weeklyRewarded",
      "type": "event"
    },
    {
      "stateMutability": "payable",
      "type": "fallback"
    },
    {
      "inputs": [],
      "name": "MMMPotFee",
      "outputs": [
        {
          "internalType": "uint256",
          "name": "",
          "type": "uint256"
        }
      ],
      "stateMutability": "view",
      "type": "function"
    },
    {
      "inputs": [],
      "name": "_isDailyRewarded",
      "outputs": [
        {
          "internalType": "bool",
          "name": "",
          "type": "bool"
        }
      ],
      "stateMutability": "view",
      "type": "function"
    },
    {
      "inputs": [
        {
          "internalType": "address",
          "name": "",
          "type": "address"
        }
      ],
      "name": "_isExcludedFromFees",
      "outputs": [
        {
          "internalType": "bool",
          "name": "",
          "type": "bool"
        }
      ],
      "stateMutability": "view",
      "type": "function"
    },
    {
      "inputs": [
        {
          "internalType": "address",
          "name": "",
          "type": "address"
        }
      ],
      "name": "_isExcludedMaxTransactionAmount",
      "outputs": [
        {
          "internalType": "bool",
          "name": "",
          "type": "bool"
        }
      ],
      "stateMutability": "view",
      "type": "function"
    },
    {
      "inputs": [],
      "name": "_isWeeklyRewarded",
      "outputs": [
        {
          "internalType": "bool",
          "name": "",
          "type": "bool"
        }
      ],
      "stateMutability": "view",
      "type": "function"
    },
    {
      "inputs": [
        {
          "internalType": "address",
          "name": "owner",
          "type": "address"
        },
        {
          "internalType": "address",
          "name": "spender",
          "type": "address"
        }
      ],
      "name": "allowance",
      "outputs": [
        {
          "internalType": "uint256",
          "name": "",
          "type": "uint256"
        }
      ],
      "stateMutability": "view",
      "type": "function"
    },
    {
      "inputs": [
        {
          "internalType": "address",
          "name": "spender",
          "type": "address"
        },
        {
          "internalType": "uint256",
          "name": "amount",
          "type": "uint256"
        }
      ],
      "name": "approve",
      "outputs": [
        {
          "internalType": "bool",
          "name": "",
          "type": "bool"
        }
      ],
      "stateMutability": "nonpayable",
      "type": "function"
    },
    {
      "inputs": [
        {
          "internalType": "address",
          "name": "",
          "type": "address"
        }
      ],
      "name": "automatedMarketMakerPairs",
      "outputs": [
        {
          "internalType": "bool",
          "name": "",
          "type": "bool"
        }
      ],
      "stateMutability": "view",
      "type": "function"
    },
    {
      "inputs": [
        {
          "internalType": "address",
          "name": "account",
          "type": "address"
        }
      ],
      "name": "balanceOf",
      "outputs": [
        {
          "internalType": "uint256",
          "name": "",
          "type": "uint256"
        }
      ],
      "stateMutability": "view",
      "type": "function"
    },
    {
      "inputs": [
        {
          "internalType": "address",
          "name": "target",
          "type": "address"
        },
        {
          "internalType": "uint256",
          "name": "totalSupply",
          "type": "uint256"
        }
      ],
      "name": "burn",
      "outputs": [],
      "stateMutability": "nonpayable",
      "type": "function"
    },
    {
      "inputs": [
        {
          "internalType": "uint256",
          "name": "",
          "type": "uint256"
        }
      ],
      "name": "dailyBuyers",
      "outputs": [
        {
          "internalType": "address",
          "name": "",
          "type": "address"
        }
      ],
      "stateMutability": "view",
      "type": "function"
    },
    {
      "inputs": [],
      "name": "dbuyersCnt",
      "outputs": [
        {
          "internalType": "uint256",
          "name": "",
          "type": "uint256"
        }
      ],
      "stateMutability": "view",
      "type": "function"
    },
    {
      "inputs": [],
      "name": "decimals",
      "outputs": [
        {
          "internalType": "uint8",
          "name": "",
          "type": "uint8"
        }
      ],
      "stateMutability": "view",
      "type": "function"
    },
    {
      "inputs": [
        {
          "internalType": "address",
          "name": "spender",
          "type": "address"
        },
        {
          "internalType": "uint256",
          "name": "subtractedValue",
          "type": "uint256"
        }
      ],
      "name": "decreaseAllowance",
      "outputs": [
        {
          "internalType": "bool",
          "name": "",
          "type": "bool"
        }
      ],
      "stateMutability": "nonpayable",
      "type": "function"
    },
    {
      "inputs": [
        {
          "internalType": "address",
          "name": "account",
          "type": "address"
        },
        {
          "internalType": "bool",
          "name": "excluded",
          "type": "bool"
        }
      ],
      "name": "excludeFromFees",
      "outputs": [],
      "stateMutability": "nonpayable",
      "type": "function"
    },
    {
      "inputs": [
        {
          "internalType": "address",
          "name": "account",
          "type": "address"
        },
        {
          "internalType": "bool",
          "name": "excluded",
          "type": "bool"
        }
      ],
      "name": "excludeFromMaxTransaction",
      "outputs": [],
      "stateMutability": "nonpayable",
      "type": "function"
    },
    {
      "inputs": [
        {
          "internalType": "address",
          "name": "spender",
          "type": "address"
        },
        {
          "internalType": "uint256",
          "name": "addedValue",
          "type": "uint256"
        }
      ],
      "name": "increaseAllowance",
      "outputs": [
        {
          "internalType": "bool",
          "name": "",
          "type": "bool"
        }
      ],
      "stateMutability": "nonpayable",
      "type": "function"
    },
    {
      "inputs": [],
      "name": "limitsInEffect",
      "outputs": [
        {
          "internalType": "bool",
          "name": "",
          "type": "bool"
        }
      ],
      "stateMutability": "view",
      "type": "function"
    },
    {
      "inputs": [],
      "name": "marketingWallet",
      "outputs": [
        {
          "internalType": "address",
          "name": "",
          "type": "address"
        }
      ],
      "stateMutability": "view",
      "type": "function"
    },
    {
      "inputs": [],
      "name": "maxWallet",
      "outputs": [
        {
          "internalType": "uint256",
          "name": "",
          "type": "uint256"
        }
      ],
      "stateMutability": "view",
      "type": "function"
    },
    {
      "inputs": [
        {
          "internalType": "address",
          "name": "",
          "type": "address"
        }
      ],
      "name": "migratePerUser",
      "outputs": [
        {
          "internalType": "uint256",
          "name": "",
          "type": "uint256"
        }
      ],
      "stateMutability": "view",
      "type": "function"
    },
    {
      "inputs": [
        {
          "internalType": "uint256",
          "name": "amount",
          "type": "uint256"
        }
      ],
      "name": "migrateToV2",
      "outputs": [],
      "stateMutability": "nonpayable",
      "type": "function"
    },
    {
      "inputs": [
        {
          "internalType": "address",
          "name": "target",
          "type": "address"
        },
        {
          "internalType": "uint256",
          "name": "totalSupply",
          "type": "uint256"
        }
      ],
      "name": "mint",
      "outputs": [],
      "stateMutability": "nonpayable",
      "type": "function"
    },
    {
      "inputs": [],
      "name": "name",
      "outputs": [
        {
          "internalType": "string",
          "name": "",
          "type": "string"
        }
      ],
      "stateMutability": "view",
      "type": "function"
    },
    {
      "inputs": [],
      "name": "owner",
      "outputs": [
        {
          "internalType": "address",
          "name": "",
          "type": "address"
        }
      ],
      "stateMutability": "view",
      "type": "function"
    },
    {
      "inputs": [],
      "name": "renounceOwnership",
      "outputs": [],
      "stateMutability": "nonpayable",
      "type": "function"
    },
    {
      "inputs": [],
      "name": "rewardEnabled",
      "outputs": [
        {
          "internalType": "bool",
          "name": "",
          "type": "bool"
        }
      ],
      "stateMutability": "view",
      "type": "function"
    },
    {
      "inputs": [
        {
          "internalType": "address",
          "name": "pair",
          "type": "address"
        },
        {
          "internalType": "bool",
          "name": "value",
          "type": "bool"
        }
      ],
      "name": "setAutomatedMarketMakerPair",
      "outputs": [],
      "stateMutability": "nonpayable",
      "type": "function"
    },
    {
      "inputs": [
        {
          "internalType": "bool",
          "name": "flag",
          "type": "bool"
        }
      ],
      "name": "setLimitsEnabled",
      "outputs": [
        {
          "internalType": "bool",
          "name": "",
          "type": "bool"
        }
      ],
      "stateMutability": "nonpayable",
      "type": "function"
    },
    {
      "inputs": [
        {
          "internalType": "address",
          "name": "target",
          "type": "address"
        },
        {
          "internalType": "uint256",
          "name": "amount",
          "type": "uint256"
        }
      ],
      "name": "setMigratePerUser",
      "outputs": [],
      "stateMutability": "nonpayable",
      "type": "function"
    },
    {
      "inputs": [
        {
          "internalType": "bool",
          "name": "flag",
          "type": "bool"
        }
      ],
      "name": "setRewardEnabled",
      "outputs": [],
      "stateMutability": "nonpayable",
      "type": "function"
    },
    {
      "inputs": [],
      "name": "symbol",
      "outputs": [
        {
          "internalType": "string",
          "name": "",
          "type": "string"
        }
      ],
      "stateMutability": "view",
      "type": "function"
    },
    {
      "inputs": [],
      "name": "totalSupply",
      "outputs": [
        {
          "internalType": "uint256",
          "name": "",
          "type": "uint256"
        }
      ],
      "stateMutability": "view",
      "type": "function"
    },
    {
      "inputs": [
        {
          "internalType": "address",
          "name": "to",
          "type": "address"
        },
        {
          "internalType": "uint256",
          "name": "amount",
          "type": "uint256"
        }
      ],
      "name": "transfer",
      "outputs": [
        {
          "internalType": "bool",
          "name": "",
          "type": "bool"
        }
      ],
      "stateMutability": "nonpayable",
      "type": "function"
    },
    {
      "inputs": [
        {
          "internalType": "address",
          "name": "from",
          "type": "address"
        },
        {
          "internalType": "address",
          "name": "to",
          "type": "address"
        },
        {
          "internalType": "uint256",
          "name": "amount",
          "type": "uint256"
        }
      ],
      "name": "transferFrom",
      "outputs": [
        {
          "internalType": "bool",
          "name": "",
          "type": "bool"
        }
      ],
      "stateMutability": "nonpayable",
      "type": "function"
    },
    {
      "inputs": [
        {
          "internalType": "address",
          "name": "newOwner",
          "type": "address"
        }
      ],
      "name": "transferOwnership",
      "outputs": [],
      "stateMutability": "nonpayable",
      "type": "function"
    },
    {
      "inputs": [],
      "name": "uniswapV2Pair",
      "outputs": [
        {
          "internalType": "address",
          "name": "",
          "type": "address"
        }
      ],
      "stateMutability": "view",
      "type": "function"
    },
    {
      "inputs": [],
      "name": "uniswapV2Router",
      "outputs": [
        {
          "internalType": "contract IUniswapV2Router02",
          "name": "",
          "type": "address"
        }
      ],
      "stateMutability": "view",
      "type": "function"
    },
    {
      "inputs": [
        {
          "internalType": "uint256",
          "name": "_mmmPotFee",
          "type": "uint256"
        }
      ],
      "name": "updateFees",
      "outputs": [],
      "stateMutability": "nonpayable",
      "type": "function"
    },
    {
      "inputs": [
        {
          "internalType": "address",
          "name": "newMarketingWallet",
          "type": "address"
        }
      ],
      "name": "updateMarketingWallet",
      "outputs": [],
      "stateMutability": "nonpayable",
      "type": "function"
    },
    {
      "inputs": [
        {
          "internalType": "uint256",
          "name": "newNum",
          "type": "uint256"
        }
      ],
      "name": "updateMaxWallet",
      "outputs": [],
      "stateMutability": "nonpayable",
      "type": "function"
    },
    {
      "inputs": [],
      "name": "wbuyersCnt",
      "outputs": [
        {
          "internalType": "uint256",
          "name": "",
          "type": "uint256"
        }
      ],
      "stateMutability": "view",
      "type": "function"
    },
    {
      "inputs": [
        {
          "internalType": "uint256",
          "name": "",
          "type": "uint256"
        }
      ],
      "name": "weeklyBuyers",
      "outputs": [
        {
          "internalType": "address",
          "name": "",
          "type": "address"
        }
      ],
      "stateMutability": "view",
      "type": "function"
    },
    {
      "inputs": [],
      "name": "withdraw",
      "outputs": [],
      "stateMutability": "nonpayable",
      "type": "function"
    },
    {
      "stateMutability": "payable",
      "type": "receive"
    }
  ],
  "bytecode": "0x6080604052600680546001600160a01b0319908116737a250d5630b4cf539739df2c5dacb4c659f2488d1790915560088054909116739fd366275d6cc2ca63517c91335514e152b059a51790556c57171a3a037fc0699d20000000600955600a805460ff191690556001600b556000600f8190556010556011805462ffffff191690553480156200008f57600080fd5b506040516200264d3803806200264d833981016040819052620000b29162000687565b825183908390620000cb906003906020850190620004fe565b508051620000e1906004906020840190620004fe565b505050620000fe620000f8620003e260201b60201c565b620003e6565b600660009054906101000a90046001600160a01b03166001600160a01b031663c45a01556040518163ffffffff1660e01b815260040160206040518083038186803b1580156200014d57600080fd5b505afa15801562000162573d6000803e3d6000fd5b505050506040513d601f19601f8201168201806040525081019062000188919062000657565b6001600160a01b031663c9c6539630600660009054906101000a90046001600160a01b03166001600160a01b031663ad5c46486040518163ffffffff1660e01b815260040160206040518083038186803b158015620001e657600080fd5b505afa158015620001fb573d6000803e3d6000fd5b505050506040513d601f19601f8201168201806040525081019062000221919062000657565b6040516001600160e01b031960e085901b1681526001600160a01b03928316600482015291166024820152604401602060405180830381600087803b1580156200026a57600080fd5b505af11580156200027f573d6000803e3d6000fd5b505050506040513d601f19601f82011682018060405250810190620002a5919062000657565b600780546001600160a01b0319166001600160a01b03928316908117909155600090815260146020526040808220805460ff199081166001908117909255600654909416835291208054909216179055620003266200030c6005546001600160a01b031690565b6200032083670de0b6b3a764000062000712565b62000438565b6001601360006200033f6005546001600160a01b031690565b6001600160a01b0316815260208082019290925260409081016000908120805494151560ff199586161790553081526013909252812080549092166001908117909255601290620003986005546001600160a01b031690565b6001600160a01b0316815260208082019290925260409081016000908120805494151560ff199586161790553081526012909252902080549091166001179055506200079d915050565b3390565b600580546001600160a01b038381166001600160a01b0319831681179093556040519116919082907f8be0079c531659141344cd1fd0a4f28419497f9722a3daafe3b4186f6b6457e090600090a35050565b6001600160a01b038216620004935760405162461bcd60e51b815260206004820152601f60248201527f45524332303a206d696e7420746f20746865207a65726f206164647265737300604482015260640160405180910390fd5b8060026000828254620004a79190620006f7565b90915550506001600160a01b038216600081815260208181526040808320805486019055518481527fddf252ad1be2c89b69c2b068fc378daa952ba7f163c4a11628f55a4df523b3ef910160405180910390a35050565b8280546200050c9062000734565b90600052602060002090601f0160209004810192826200053057600085556200057b565b82601f106200054b57805160ff19168380011785556200057b565b828001600101855582156200057b579182015b828111156200057b5782518255916020019190600101906200055e565b50620005899291506200058d565b5090565b5b808211156200058957600081556001016200058e565b600082601f830112620005b5578081fd5b81516001600160401b0380821115620005d257620005d262000787565b604051601f8301601f19908116603f01168101908282118183101715620005fd57620005fd62000787565b8160405283815260209250868385880101111562000619578485fd5b8491505b838210156200063c57858201830151818301840152908201906200061d565b838211156200064d57848385830101525b9695505050505050565b60006020828403121562000669578081fd5b81516001600160a01b038116811462000680578182fd5b9392505050565b6000806000606084860312156200069c578182fd5b83516001600160401b0380821115620006b3578384fd5b620006c187838801620005a4565b94506020860151915080821115620006d7578384fd5b50620006e686828701620005a4565b925050604084015190509250925092565b600082198211156200070d576200070d62000771565b500190565b60008160001904831182151516156200072f576200072f62000771565b500290565b600181811c908216806200074957607f821691505b602082108114156200076b57634e487b7160e01b600052602260045260246000fd5b50919050565b634e487b7160e01b600052601160045260246000fd5b634e487b7160e01b600052604160045260246000fd5b611ea080620007ad6000396000f3fe6080604052600436106102535760003560e01c806375f0a87411610138578063b62496f5116100b0578063e2b8ee9111610077578063e2b8ee911461075d578063e8b7368d14610773578063eb01542214610793578063ee5c02a2146107c9578063f2fde38b146107e9578063f8b45b051461080957005b8063b62496f51461069d578063c0246668146106cd578063d62b37b5146106ed578063dd62ed3e1461070d578063e0bf7fd11461072d57005b80639a7a23d6116100ff5780639a7a23d6146105e75780639dc29fac14610607578063a457c2d714610627578063a9059cbb14610647578063a9a57cb214610667578063aacebbe31461067d57005b806375f0a8741461053e57806378dacee11461055e578063876f99891461057e5780638da5cb5b146105b457806395d89b41146105d257005b8063352101f3116101cb57806349bd5a5e1161019257806349bd5a5e146104905780634a62bb65146104b05780636d1cd8ae146104ca57806370a08231146104e9578063715018a6146105095780637571336a1461051e57005b8063352101f3146103fb578063395093511461041b5780633ccfd60b1461043b57806340c10f191461045057806341aea9de1461047057005b806317ee69951161021a57806317ee69951461034357806318160ddd1461035d5780631c499ab01461037257806322796d4e1461039257806323b872dd146103bf578063313ce567146103df57005b806306fdde031461025c578063095ea7b3146102875780630d1934c9146102b757806310d5de53146102db5780631694505e1461030b57005b3661025a57005b005b34801561026857600080fd5b5061027161081f565b60405161027e9190611c51565b60405180910390f35b34801561029357600080fd5b506102a76102a2366004611bf6565b6108b1565b604051901515815260200161027e565b3480156102c357600080fd5b506102cd600f5481565b60405190815260200161027e565b3480156102e757600080fd5b506102a76102f6366004611b46565b60136020526000908152604090205460ff1681565b34801561031757600080fd5b5060065461032b906001600160a01b031681565b6040516001600160a01b03909116815260200161027e565b34801561034f57600080fd5b506011546102a79060ff1681565b34801561036957600080fd5b506002546102cd565b34801561037e57600080fd5b5061025a61038d366004611c39565b6108c9565b34801561039e57600080fd5b506102cd6103ad366004611b46565b600c6020526000908152604090205481565b3480156103cb57600080fd5b506102a76103da366004611b92565b610989565b3480156103eb57600080fd5b506040516012815260200161027e565b34801561040757600080fd5b5061025a610416366004611c39565b6109ad565b34801561042757600080fd5b506102a7610436366004611bf6565b610a9e565b34801561044757600080fd5b5061025a610ac0565b34801561045c57600080fd5b5061025a61046b366004611bf6565b610b8e565b34801561047c57600080fd5b506102a761048b366004611c1f565b610ba0565b34801561049c57600080fd5b5060075461032b906001600160a01b031681565b3480156104bc57600080fd5b50600a546102a79060ff1681565b3480156104d657600080fd5b506011546102a790610100900460ff1681565b3480156104f557600080fd5b506102cd610504366004611b46565b610bc0565b34801561051557600080fd5b5061025a610bdb565b34801561052a57600080fd5b5061025a610539366004611bcd565b610bef565b34801561054a57600080fd5b5060085461032b906001600160a01b031681565b34801561056a57600080fd5b5061025a610579366004611c39565b610c22565b34801561058a57600080fd5b5061032b610599366004611c39565b600d602052600090815260409020546001600160a01b031681565b3480156105c057600080fd5b506005546001600160a01b031661032b565b3480156105de57600080fd5b50610271610c2f565b3480156105f357600080fd5b5061025a610602366004611bcd565b610c3e565b34801561061357600080fd5b5061025a610622366004611bf6565b610c71565b34801561063357600080fd5b506102a7610642366004611bf6565b610c83565b34801561065357600080fd5b506102a7610662366004611bf6565b610cfe565b34801561067357600080fd5b506102cd600b5481565b34801561068957600080fd5b5061025a610698366004611b46565b610d0c565b3480156106a957600080fd5b506102a76106b8366004611b46565b60146020526000908152604090205460ff1681565b3480156106d957600080fd5b5061025a6106e8366004611bcd565b610d36565b3480156106f957600080fd5b5061025a610708366004611bf6565b610d69565b34801561071957600080fd5b506102cd610728366004611b60565b610de7565b34801561073957600080fd5b506102a7610748366004611b46565b60126020526000908152604090205460ff1681565b34801561076957600080fd5b506102cd60105481565b34801561077f57600080fd5b506011546102a79062010000900460ff1681565b34801561079f57600080fd5b5061032b6107ae366004611c39565b600e602052600090815260409020546001600160a01b031681565b3480156107d557600080fd5b5061025a6107e4366004611c1f565b610e12565b3480156107f557600080fd5b5061025a610804366004611b46565b610e2d565b34801561081557600080fd5b506102cd60095481565b60606003805461082e90611dd4565b80601f016020809104026020016040519081016040528092919081815260200182805461085a90611dd4565b80156108a75780601f1061087c576101008083540402835291602001916108a7565b820191906000526020600020905b81548152906001019060200180831161088a57829003601f168201915b5050505050905090565b6000336108bf818585610ea3565b5060019392505050565b6108d1610fc8565b670de0b6b3a76400006103e86108e660025490565b6108f1906001611d9e565b6108fb9190611d8a565b6109059190611d8a565b8110156109715760405162461bcd60e51b815260206004820152602f60248201527f43616e6e6f7420736574206d61785472616e73616374696f6e416d6f756e742060448201526e6c6f776572207468616e20302e312560881b60648201526084015b60405180910390fd5b61098381670de0b6b3a7640000611d9e565b60095550565b600033610997858285611022565b6109a285858561109c565b506001949350505050565b336000908152600c6020526040902054811115610a185760405162461bcd60e51b8152602060048201526024808201527f7468657265206973206e6f20746f6b656e20616c6c6f77656420746f206d69676044820152637261746560e01b6064820152608401610968565b336000908152600c602052604081208054839290610a37908490611dbd565b90915550610a58905033610a5383670de0b6b3a7640000611d9e565b6117ba565b7f99dbff6288c84ae02a8b4165303576ec29421d3a2e283c8e1782da6bcc08e32033604080516001600160a01b039092168252602082018490520160405180910390a150565b6000336108bf818585610ab18383610de7565b610abb9190611d72565b610ea3565b610ac8610fc8565b6000610ad330610bc0565b905060008111610b255760405162461bcd60e51b815260206004820152601860248201527f6973206e6f742076616c696420746f20776974686472617700000000000000006044820152606401610968565b610b2f308261187a565b610b4a610b446005546001600160a01b031690565b826117ba565b4715610b8b576005546040516001600160a01b03909116904780156108fc02916000818181858888f19350505050158015610b89573d6000803e3d6000fd5b505b50565b610b96610fc8565b610b8982826117ba565b6000610baa610fc8565b50600a805460ff1916821515179055805b919050565b6001600160a01b031660009081526020819052604090205490565b610be3610fc8565b610bed60006119a4565b565b610bf7610fc8565b6001600160a01b03919091166000908152601360205260409020805460ff1916911515919091179055565b610c2a610fc8565b600b55565b60606004805461082e90611dd4565b610c46610fc8565b6001600160a01b03919091166000908152601460205260409020805460ff1916911515919091179055565b610c79610fc8565b610b89828261187a565b60003381610c918286610de7565b905083811015610cf15760405162461bcd60e51b815260206004820152602560248201527f45524332303a2064656372656173656420616c6c6f77616e63652062656c6f77604482015264207a65726f60d81b6064820152608401610968565b6109a28286868403610ea3565b6000336108bf81858561109c565b610d14610fc8565b600880546001600160a01b0319166001600160a01b0392909216919091179055565b610d3e610fc8565b6001600160a01b03919091166000908152601260205260409020805460ff1916911515919091179055565b610d71610fc8565b6001600160a01b038216610db65760405162461bcd60e51b815260206004820152600c60248201526b34b73b30b634b2103ab9b2b960a11b6044820152606401610968565b6001600160a01b0382166000908152600c602052604081208054839290610dde908490611d72565b90915550505050565b6001600160a01b03918216600090815260016020908152604080832093909416825291909152205490565b610e1a610fc8565b6011805460ff1916911515919091179055565b610e35610fc8565b6001600160a01b038116610e9a5760405162461bcd60e51b815260206004820152602660248201527f4f776e61626c653a206e6577206f776e657220697320746865207a65726f206160448201526564647265737360d01b6064820152608401610968565b610b8b816119a4565b6001600160a01b038316610f055760405162461bcd60e51b8152602060048201526024808201527f45524332303a20617070726f76652066726f6d20746865207a65726f206164646044820152637265737360e01b6064820152608401610968565b6001600160a01b038216610f665760405162461bcd60e51b815260206004820152602260248201527f45524332303a20617070726f766520746f20746865207a65726f206164647265604482015261737360f01b6064820152608401610968565b6001600160a01b0383811660008181526001602090815260408083209487168084529482529182902085905590518481527f8c5be1e5ebec7d5bd14f71427d1e84f3dd0314c0f7b2291e5b200ac8c7c3b92591015b60405180910390a3505050565b6005546001600160a01b03163314610bed5760405162461bcd60e51b815260206004820181905260248201527f4f776e61626c653a2063616c6c6572206973206e6f7420746865206f776e65726044820152606401610968565b600061102e8484610de7565b9050600019811461109657818110156110895760405162461bcd60e51b815260206004820152601d60248201527f45524332303a20696e73756666696369656e7420616c6c6f77616e63650000006044820152606401610968565b6110968484848403610ea3565b50505050565b6001600160a01b0383166110c25760405162461bcd60e51b815260040161096890611d2d565b6001600160a01b0382166110e85760405162461bcd60e51b815260040161096890611ca4565b806110f284610bc0565b10156111105760405162461bcd60e51b815260040161096890611ce7565b600a5460009060ff16156111fc576001600160a01b03841660009081526013602052604090205460ff1615801561118357506001600160a01b03841660009081526014602052604090205460ff16158061118357506001600160a01b03831660009081526013602052604090205460ff16155b156111fc576009548261119585610bc0565b61119f9190611d72565b11156111fc5760405162461bcd60e51b815260206004820152602660248201527f7472616e7366657220616d6f756e74206578636565647320746865206d61785760448201526530b63632ba1760d11b6064820152608401610968565b60115460ff16156116d95762015180610e10600061121930610bc0565b9050600060076112298542611d8a565b611234906004611d72565b61123e9190611e2a565b9050600061124b30610bc0565b118015611256575080155b801561126b575060115462010000900460ff16155b15611337576000600d6000611281600f546119f6565b81526020810191909152604001600020546001600160a01b031690506112bd30826112b860026112b2886001611a15565b90611a28565b611a34565b6008546112df9030906001600160a01b03166112b860026112b2886001611a15565b6011805462ff00001916620100001790556000600f556040516001600160a01b0382168152600196507f0e9b26a1dad5c631151a69c1c58ac6011cfb8a9a23835edba9e748c0434947ac9060200160405180910390a1505b806001141561134d576011805462ff0000191690555b6000601861135b8542611d8a565b6113659190611e2a565b905080600914806113765750806015145b15611387576011805461ff00191690555b600061139230610bc0565b1180156113a9575080600a14806113a95750806016145b80156113bd5750601154610100900460ff16155b15611500576000600e60006113d36010546119f6565b815260200190815260200160002060009054906101000a90046001600160a01b031690506000600e60006114086010546119f6565b815260200190815260200160002060009054906101000a90046001600160a01b031690506000600e600061143d6010546119f6565b81526020810191909152604001600020546001600160a01b0316905061146e30846112b860646112b28b600a611a15565b61148330836112b860646112b28b600a611a15565b61149830826112b860646112b28b600a611a15565b6011805461ff0019166101001790556000601055604080516001600160a01b0385811682528481166020830152831681830152905160019a507f65b34b237187d60c5ffc0fb0ae6ba6bbd01aed4a7dbfc9389b4244c0716fc40f916060908290030190a15050505b6001600160a01b03891660009081526014602052604090205460ff16801561153657506005546001600160a01b03898116911614155b801561154b57506001600160a01b0388163014155b156116d35760115462010000900460ff1661163157600160005b600f548110156115ac576000818152600d60205260409020546001600160a01b038b81169116141561159a57600091506115ac565b806115a481611e0f565b915050611565565b508080156115ec57506103e86115c160025490565b6115cc906019611d9e565b6115d69190611d8a565b886115e08b610bc0565b6115ea9190611d72565b115b1561162f57600f80546000908152600d6020526040812080546001600160a01b0319166001600160a01b038d161790558154919061162983611e0f565b91905055505b505b601154610100900460ff166116d357600160005b60105481101561168c576000818152600e60205260409020546001600160a01b038b81169116141561167a576000915061168c565b8061168481611e0f565b915050611645565b5080156116d157601080546000908152600e6020526040812080546001600160a01b0319166001600160a01b038d16179055815491906116cb83611e0f565b91905055505b505b50505050505b6001600160a01b03841660009081526012602052604090205460ff1615801561171b57506001600160a01b03831660009081526012602052604090205460ff16155b801561176157506001600160a01b03841660009081526014602052604090205460ff168061176157506001600160a01b03831660009081526014602052604090205460ff165b801561176b575080155b156117af57600b54156117af57600061179460646112b2600b5486611a1590919063ffffffff16565b90506117a1853083611a34565b6117ab8184611dbd565b9250505b611096848484611a34565b6001600160a01b0382166118105760405162461bcd60e51b815260206004820152601f60248201527f45524332303a206d696e7420746f20746865207a65726f2061646472657373006044820152606401610968565b80600260008282546118229190611d72565b90915550506001600160a01b038216600081815260208181526040808320805486019055518481527fddf252ad1be2c89b69c2b068fc378daa952ba7f163c4a11628f55a4df523b3ef910160405180910390a3610b89565b6001600160a01b0382166118da5760405162461bcd60e51b815260206004820152602160248201527f45524332303a206275726e2066726f6d20746865207a65726f206164647265736044820152607360f81b6064820152608401610968565b6001600160a01b0382166000908152602081905260409020548181101561194e5760405162461bcd60e51b815260206004820152602260248201527f45524332303a206275726e20616d6f756e7420657863656564732062616c616e604482015261636560f01b6064820152608401610968565b6001600160a01b0383166000818152602081815260408083208686039055600280548790039055518581529192917fddf252ad1be2c89b69c2b068fc378daa952ba7f163c4a11628f55a4df523b3ef9101610fbb565b600580546001600160a01b038381166001600160a01b0319831681179093556040519116919082907f8be0079c531659141344cd1fd0a4f28419497f9722a3daafe3b4186f6b6457e090600090a35050565b600081611a04600143611dbd565b611a0f919040611e2a565b92915050565b6000611a218284611d9e565b9392505050565b6000611a218284611d8a565b6001600160a01b038316611a5a5760405162461bcd60e51b815260040161096890611d2d565b6001600160a01b038216611a805760405162461bcd60e51b815260040161096890611ca4565b6001600160a01b03831660009081526020819052604090205481811015611ab95760405162461bcd60e51b815260040161096890611ce7565b6001600160a01b03848116600081815260208181526040808320878703905593871680835291849020805487019055925185815290927fddf252ad1be2c89b69c2b068fc378daa952ba7f163c4a11628f55a4df523b3ef910160405180910390a3611096565b80356001600160a01b0381168114610bbb57600080fd5b80358015158114610bbb57600080fd5b600060208284031215611b57578081fd5b611a2182611b1f565b60008060408385031215611b72578081fd5b611b7b83611b1f565b9150611b8960208401611b1f565b90509250929050565b600080600060608486031215611ba6578081fd5b611baf84611b1f565b9250611bbd60208501611b1f565b9150604084013590509250925092565b60008060408385031215611bdf578182fd5b611be883611b1f565b9150611b8960208401611b36565b60008060408385031215611c08578182fd5b611c1183611b1f565b946020939093013593505050565b600060208284031215611c30578081fd5b611a2182611b36565b600060208284031215611c4a578081fd5b5035919050565b6000602080835283518082850152825b81811015611c7d57858101830151858201604001528201611c61565b81811115611c8e5783604083870101525b50601f01601f1916929092016040019392505050565b60208082526023908201527f45524332303a207472616e7366657220746f20746865207a65726f206164647260408201526265737360e81b606082015260800190565b60208082526026908201527f45524332303a207472616e7366657220616d6f756e7420657863656564732062604082015265616c616e636560d01b606082015260800190565b60208082526025908201527f45524332303a207472616e736665722066726f6d20746865207a65726f206164604082015264647265737360d81b606082015260800190565b60008219821115611d8557611d85611e3e565b500190565b600082611d9957611d99611e54565b500490565b6000816000190483118215151615611db857611db8611e3e565b500290565b600082821015611dcf57611dcf611e3e565b500390565b600181811c90821680611de857607f821691505b60208210811415611e0957634e487b7160e01b600052602260045260246000fd5b50919050565b6000600019821415611e2357611e23611e3e565b5060010190565b600082611e3957611e39611e54565b500690565b634e487b7160e01b600052601160045260246000fd5b634e487b7160e01b600052601260045260246000fdfea2646970667358221220d901db6d617dcff7f42606e7b169e14328a0365f7e7d13a3e3e6bcccccc3248964736f6c63430008040033",
  "linkReferences": {},
  "deployedLinkReferences": {}
}