{
  "_format": "hh-sol-artifact-1",
  "contractName": "FritzTheCat",
  "sourceName": "contracts/VIP/FritzTheCatToken.sol",
  "abi": [
    {
      "inputs": [
        {
          "internalType": "string",
          "name": "name",
          "type": "string"
        },
        {
          "internalType": "string",
          "name": "symbol",
          "type": "string"
        },
        {
          "internalType": "uint256",
          "name": "totalAmount",
          "type": "uint256"
        }
      ],
      "stateMutability": "nonpayable",
      "type": "constructor"
    },
    {
      "anonymous": false,
      "inputs": [
        {
          "indexed": true,
          "internalType": "address",
          "name": "owner",
          "type": "address"
        },
        {
          "indexed": true,
          "internalType": "address",
          "name": "spender",
          "type": "address"
        },
        {
          "indexed": false,
          "internalType": "uint256",
          "name": "value",
          "type": "uint256"
        }
      ],
      "name": "Approval",
      "type": "event"
    },
    {
      "anonymous": false,
      "inputs": [
        {
          "indexed": true,
          "internalType": "address",
          "name": "previousOwner",
          "type": "address"
        },
        {
          "indexed": true,
          "internalType": "address",
          "name": "newOwner",
          "type": "address"
        }
      ],
      "name": "OwnershipTransferred",
      "type": "event"
    },
    {
      "anonymous": false,
      "inputs": [
        {
          "indexed": false,
          "internalType": "uint256",
          "name": "tokensSwapped",
          "type": "uint256"
        },
        {
          "indexed": false,
          "internalType": "uint256",
          "name": "ethReceived",
          "type": "uint256"
        },
        {
          "indexed": false,
          "internalType": "uint256",
          "name": "tokensIntoLiquidity",
          "type": "uint256"
        }
      ],
      "name": "SwapAndLiquify",
      "type": "event"
    },
    {
      "anonymous": false,
      "inputs": [
        {
          "indexed": true,
          "internalType": "address",
          "name": "from",
          "type": "address"
        },
        {
          "indexed": true,
          "internalType": "address",
          "name": "to",
          "type": "address"
        },
        {
          "indexed": false,
          "internalType": "uint256",
          "name": "value",
          "type": "uint256"
        }
      ],
      "name": "Transfer",
      "type": "event"
    },
    {
      "stateMutability": "payable",
      "type": "fallback"
    },
    {
      "inputs": [],
      "name": "DevFee",
      "outputs": [
        {
          "internalType": "uint256",
          "name": "",
          "type": "uint256"
        }
      ],
      "stateMutability": "view",
      "type": "function"
    },
    {
      "inputs": [],
      "name": "LiquidityFee",
      "outputs": [
        {
          "internalType": "uint256",
          "name": "",
          "type": "uint256"
        }
      ],
      "stateMutability": "view",
      "type": "function"
    },
    {
      "inputs": [],
      "name": "MMMPotFee",
      "outputs": [
        {
          "internalType": "uint256",
          "name": "",
          "type": "uint256"
        }
      ],
      "stateMutability": "view",
      "type": "function"
    },
    {
      "inputs": [],
      "name": "MarketingFee",
      "outputs": [
        {
          "internalType": "uint256",
          "name": "",
          "type": "uint256"
        }
      ],
      "stateMutability": "view",
      "type": "function"
    },
    {
      "inputs": [],
      "name": "ReferalFee",
      "outputs": [
        {
          "internalType": "uint256",
          "name": "",
          "type": "uint256"
        }
      ],
      "stateMutability": "view",
      "type": "function"
    },
    {
      "inputs": [],
      "name": "TotalFees",
      "outputs": [
        {
          "internalType": "uint256",
          "name": "",
          "type": "uint256"
        }
      ],
      "stateMutability": "view",
      "type": "function"
    },
    {
      "inputs": [],
      "name": "_isDailyRewarded",
      "outputs": [
        {
          "internalType": "bool",
          "name": "",
          "type": "bool"
        }
      ],
      "stateMutability": "view",
      "type": "function"
    },
    {
      "inputs": [
        {
          "internalType": "address",
          "name": "",
          "type": "address"
        }
      ],
      "name": "_isExcludedFromFees",
      "outputs": [
        {
          "internalType": "bool",
          "name": "",
          "type": "bool"
        }
      ],
      "stateMutability": "view",
      "type": "function"
    },
    {
      "inputs": [
        {
          "internalType": "address",
          "name": "",
          "type": "address"
        }
      ],
      "name": "_isExcludedMaxTransactionAmount",
      "outputs": [
        {
          "internalType": "bool",
          "name": "",
          "type": "bool"
        }
      ],
      "stateMutability": "view",
      "type": "function"
    },
    {
      "inputs": [],
      "name": "_isWeeklyRewarded",
      "outputs": [
        {
          "internalType": "bool",
          "name": "",
          "type": "bool"
        }
      ],
      "stateMutability": "view",
      "type": "function"
    },
    {
      "inputs": [
        {
          "internalType": "address",
          "name": "owner",
          "type": "address"
        },
        {
          "internalType": "address",
          "name": "spender",
          "type": "address"
        }
      ],
      "name": "allowance",
      "outputs": [
        {
          "internalType": "uint256",
          "name": "",
          "type": "uint256"
        }
      ],
      "stateMutability": "view",
      "type": "function"
    },
    {
      "inputs": [
        {
          "internalType": "address",
          "name": "spender",
          "type": "address"
        },
        {
          "internalType": "uint256",
          "name": "amount",
          "type": "uint256"
        }
      ],
      "name": "approve",
      "outputs": [
        {
          "internalType": "bool",
          "name": "",
          "type": "bool"
        }
      ],
      "stateMutability": "nonpayable",
      "type": "function"
    },
    {
      "inputs": [
        {
          "internalType": "address",
          "name": "",
          "type": "address"
        }
      ],
      "name": "automatedMarketMakerPairs",
      "outputs": [
        {
          "internalType": "bool",
          "name": "",
          "type": "bool"
        }
      ],
      "stateMutability": "view",
      "type": "function"
    },
    {
      "inputs": [
        {
          "internalType": "address",
          "name": "account",
          "type": "address"
        }
      ],
      "name": "balanceOf",
      "outputs": [
        {
          "internalType": "uint256",
          "name": "",
          "type": "uint256"
        }
      ],
      "stateMutability": "view",
      "type": "function"
    },
    {
      "inputs": [],
      "name": "decimals",
      "outputs": [
        {
          "internalType": "uint8",
          "name": "",
          "type": "uint8"
        }
      ],
      "stateMutability": "view",
      "type": "function"
    },
    {
      "inputs": [
        {
          "internalType": "address",
          "name": "spender",
          "type": "address"
        },
        {
          "internalType": "uint256",
          "name": "subtractedValue",
          "type": "uint256"
        }
      ],
      "name": "decreaseAllowance",
      "outputs": [
        {
          "internalType": "bool",
          "name": "",
          "type": "bool"
        }
      ],
      "stateMutability": "nonpayable",
      "type": "function"
    },
    {
      "inputs": [],
      "name": "devWallet",
      "outputs": [
        {
          "internalType": "address",
          "name": "",
          "type": "address"
        }
      ],
      "stateMutability": "view",
      "type": "function"
    },
    {
      "inputs": [
        {
          "internalType": "address",
          "name": "account",
          "type": "address"
        },
        {
          "internalType": "bool",
          "name": "excluded",
          "type": "bool"
        }
      ],
      "name": "excludeFromFees",
      "outputs": [],
      "stateMutability": "nonpayable",
      "type": "function"
    },
    {
      "inputs": [
        {
          "internalType": "address",
          "name": "account",
          "type": "address"
        },
        {
          "internalType": "bool",
          "name": "excluded",
          "type": "bool"
        }
      ],
      "name": "excludeFromMaxTransaction",
      "outputs": [],
      "stateMutability": "nonpayable",
      "type": "function"
    },
    {
      "inputs": [
        {
          "internalType": "address",
          "name": "spender",
          "type": "address"
        },
        {
          "internalType": "uint256",
          "name": "addedValue",
          "type": "uint256"
        }
      ],
      "name": "increaseAllowance",
      "outputs": [
        {
          "internalType": "bool",
          "name": "",
          "type": "bool"
        }
      ],
      "stateMutability": "nonpayable",
      "type": "function"
    },
    {
      "inputs": [],
      "name": "isVIPEnabled",
      "outputs": [
        {
          "internalType": "bool",
          "name": "",
          "type": "bool"
        }
      ],
      "stateMutability": "view",
      "type": "function"
    },
    {
      "inputs": [],
      "name": "lastbuyer_1",
      "outputs": [
        {
          "internalType": "address",
          "name": "",
          "type": "address"
        }
      ],
      "stateMutability": "view",
      "type": "function"
    },
    {
      "inputs": [],
      "name": "lastbuyer_2",
      "outputs": [
        {
          "internalType": "address",
          "name": "",
          "type": "address"
        }
      ],
      "stateMutability": "view",
      "type": "function"
    },
    {
      "inputs": [],
      "name": "lastbuyer_3",
      "outputs": [
        {
          "internalType": "address",
          "name": "",
          "type": "address"
        }
      ],
      "stateMutability": "view",
      "type": "function"
    },
    {
      "inputs": [],
      "name": "limitsInEffect",
      "outputs": [
        {
          "internalType": "bool",
          "name": "",
          "type": "bool"
        }
      ],
      "stateMutability": "view",
      "type": "function"
    },
    {
      "inputs": [],
      "name": "lpBurnEnabled",
      "outputs": [
        {
          "internalType": "bool",
          "name": "",
          "type": "bool"
        }
      ],
      "stateMutability": "view",
      "type": "function"
    },
    {
      "inputs": [],
      "name": "marketingWallet",
      "outputs": [
        {
          "internalType": "address",
          "name": "",
          "type": "address"
        }
      ],
      "stateMutability": "view",
      "type": "function"
    },
    {
      "inputs": [],
      "name": "maxTransactionAmount",
      "outputs": [
        {
          "internalType": "uint256",
          "name": "",
          "type": "uint256"
        }
      ],
      "stateMutability": "view",
      "type": "function"
    },
    {
      "inputs": [],
      "name": "maxWallet",
      "outputs": [
        {
          "internalType": "uint256",
          "name": "",
          "type": "uint256"
        }
      ],
      "stateMutability": "view",
      "type": "function"
    },
    {
      "inputs": [
        {
          "internalType": "address",
          "name": "target",
          "type": "address"
        },
        {
          "internalType": "uint256",
          "name": "totalSupply",
          "type": "uint256"
        }
      ],
      "name": "mint",
      "outputs": [],
      "stateMutability": "nonpayable",
      "type": "function"
    },
    {
      "inputs": [],
      "name": "name",
      "outputs": [
        {
          "internalType": "string",
          "name": "",
          "type": "string"
        }
      ],
      "stateMutability": "view",
      "type": "function"
    },
    {
      "inputs": [],
      "name": "owner",
      "outputs": [
        {
          "internalType": "address",
          "name": "",
          "type": "address"
        }
      ],
      "stateMutability": "view",
      "type": "function"
    },
    {
      "inputs": [
        {
          "internalType": "address",
          "name": "",
          "type": "address"
        }
      ],
      "name": "referals",
      "outputs": [
        {
          "internalType": "address",
          "name": "",
          "type": "address"
        }
      ],
      "stateMutability": "view",
      "type": "function"
    },
    {
      "inputs": [],
      "name": "renounceOwnership",
      "outputs": [],
      "stateMutability": "nonpayable",
      "type": "function"
    },
    {
      "inputs": [],
      "name": "rewardEnabled",
      "outputs": [
        {
          "internalType": "bool",
          "name": "",
          "type": "bool"
        }
      ],
      "stateMutability": "view",
      "type": "function"
    },
    {
      "inputs": [
        {
          "internalType": "uint256",
          "name": "_frequencyInSeconds",
          "type": "uint256"
        },
        {
          "internalType": "uint256",
          "name": "_percent",
          "type": "uint256"
        },
        {
          "internalType": "bool",
          "name": "_Enabled",
          "type": "bool"
        }
      ],
      "name": "setAutoLPBurnSettings",
      "outputs": [],
      "stateMutability": "nonpayable",
      "type": "function"
    },
    {
      "inputs": [
        {
          "internalType": "address",
          "name": "pair",
          "type": "address"
        },
        {
          "internalType": "bool",
          "name": "value",
          "type": "bool"
        }
      ],
      "name": "setAutomatedMarketMakerPair",
      "outputs": [],
      "stateMutability": "nonpayable",
      "type": "function"
    },
    {
      "inputs": [
        {
          "internalType": "bool",
          "name": "flag",
          "type": "bool"
        }
      ],
      "name": "setLimitsEnabled",
      "outputs": [
        {
          "internalType": "bool",
          "name": "",
          "type": "bool"
        }
      ],
      "stateMutability": "nonpayable",
      "type": "function"
    },
    {
      "inputs": [
        {
          "internalType": "address",
          "name": "target",
          "type": "address"
        },
        {
          "internalType": "address",
          "name": "referUser",
          "type": "address"
        }
      ],
      "name": "setReferal",
      "outputs": [],
      "stateMutability": "nonpayable",
      "type": "function"
    },
    {
      "inputs": [
        {
          "internalType": "bool",
          "name": "flag",
          "type": "bool"
        }
      ],
      "name": "setRewardEnabled",
      "outputs": [],
      "stateMutability": "nonpayable",
      "type": "function"
    },
    {
      "inputs": [
        {
          "internalType": "bool",
          "name": "flag",
          "type": "bool"
        }
      ],
      "name": "setVipEnabled",
      "outputs": [],
      "stateMutability": "nonpayable",
      "type": "function"
    },
    {
      "inputs": [],
      "name": "swapTokensAtAmount",
      "outputs": [
        {
          "internalType": "uint256",
          "name": "",
          "type": "uint256"
        }
      ],
      "stateMutability": "view",
      "type": "function"
    },
    {
      "inputs": [],
      "name": "symbol",
      "outputs": [
        {
          "internalType": "string",
          "name": "",
          "type": "string"
        }
      ],
      "stateMutability": "view",
      "type": "function"
    },
    {
      "inputs": [],
      "name": "totalSupply",
      "outputs": [
        {
          "internalType": "uint256",
          "name": "",
          "type": "uint256"
        }
      ],
      "stateMutability": "view",
      "type": "function"
    },
    {
      "inputs": [
        {
          "internalType": "address",
          "name": "to",
          "type": "address"
        },
        {
          "internalType": "uint256",
          "name": "amount",
          "type": "uint256"
        }
      ],
      "name": "transfer",
      "outputs": [
        {
          "internalType": "bool",
          "name": "",
          "type": "bool"
        }
      ],
      "stateMutability": "nonpayable",
      "type": "function"
    },
    {
      "inputs": [
        {
          "internalType": "address",
          "name": "from",
          "type": "address"
        },
        {
          "internalType": "address",
          "name": "to",
          "type": "address"
        },
        {
          "internalType": "uint256",
          "name": "amount",
          "type": "uint256"
        }
      ],
      "name": "transferFrom",
      "outputs": [
        {
          "internalType": "bool",
          "name": "",
          "type": "bool"
        }
      ],
      "stateMutability": "nonpayable",
      "type": "function"
    },
    {
      "inputs": [
        {
          "internalType": "address",
          "name": "newOwner",
          "type": "address"
        }
      ],
      "name": "transferOwnership",
      "outputs": [],
      "stateMutability": "nonpayable",
      "type": "function"
    },
    {
      "inputs": [],
      "name": "uniswapV2Pair",
      "outputs": [
        {
          "internalType": "address",
          "name": "",
          "type": "address"
        }
      ],
      "stateMutability": "view",
      "type": "function"
    },
    {
      "inputs": [],
      "name": "uniswapV2Router",
      "outputs": [
        {
          "internalType": "contract IUniswapV2Router02",
          "name": "",
          "type": "address"
        }
      ],
      "stateMutability": "view",
      "type": "function"
    },
    {
      "inputs": [
        {
          "internalType": "address",
          "name": "newWallet",
          "type": "address"
        }
      ],
      "name": "updateDevWallet",
      "outputs": [],
      "stateMutability": "nonpayable",
      "type": "function"
    },
    {
      "inputs": [
        {
          "internalType": "uint256",
          "name": "_marketingFee",
          "type": "uint256"
        },
        {
          "internalType": "uint256",
          "name": "_liquidityFee",
          "type": "uint256"
        },
        {
          "internalType": "uint256",
          "name": "_mmmpotFee",
          "type": "uint256"
        },
        {
          "internalType": "uint256",
          "name": "_referalFee",
          "type": "uint256"
        },
        {
          "internalType": "uint256",
          "name": "_devFee",
          "type": "uint256"
        }
      ],
      "name": "updateFees",
      "outputs": [],
      "stateMutability": "nonpayable",
      "type": "function"
    },
    {
      "inputs": [
        {
          "internalType": "address",
          "name": "newMarketingWallet",
          "type": "address"
        }
      ],
      "name": "updateMarketingWallet",
      "outputs": [],
      "stateMutability": "nonpayable",
      "type": "function"
    },
    {
      "inputs": [
        {
          "internalType": "uint256",
          "name": "newNum",
          "type": "uint256"
        }
      ],
      "name": "updateMaxTxnAmount",
      "outputs": [],
      "stateMutability": "nonpayable",
      "type": "function"
    },
    {
      "inputs": [
        {
          "internalType": "uint256",
          "name": "newNum",
          "type": "uint256"
        }
      ],
      "name": "updateMaxWalletAmount",
      "outputs": [],
      "stateMutability": "nonpayable",
      "type": "function"
    },
    {
      "inputs": [
        {
          "internalType": "uint256",
          "name": "newAmount",
          "type": "uint256"
        }
      ],
      "name": "updateSwapTokensAtAmount",
      "outputs": [
        {
          "internalType": "bool",
          "name": "",
          "type": "bool"
        }
      ],
      "stateMutability": "nonpayable",
      "type": "function"
    },
    {
      "inputs": [
        {
          "internalType": "uint256",
          "name": "",
          "type": "uint256"
        }
      ],
      "name": "users",
      "outputs": [
        {
          "internalType": "address",
          "name": "",
          "type": "address"
        }
      ],
      "stateMutability": "view",
      "type": "function"
    },
    {
      "inputs": [],
      "name": "withdraw",
      "outputs": [],
      "stateMutability": "nonpayable",
      "type": "function"
    },
    {
      "stateMutability": "payable",
      "type": "receive"
    }
  ],
  "bytecode": "0x6080604052600680546001600160a01b0319908116737a250d5630b4cf539739df2c5dacb4c659f2488d17909155600880548216739fd366275d6cc2ca63517c91335514e152b059a51790556009805490911673dbc6d941521bbd3a14f9e457712afa327bee1ea81790556c2b8b8d1d01bfe034ce90000000600a556c57171a3a037fc0699d20000000600b819055600c556019600d55600e805460ff19169055610e10600f55601180546201010062ffffff19909116179055600560125560016013556000601481905560026015819055601655601755601d805461ffff19169055348015620000ef57600080fd5b506040516200371638038062003716833981016040819052620001129162000767565b8251839083906200012b906003906020850190620005de565b50805162000141906004906020840190620005de565b5050506200015e62000158620004c260201b60201c565b620004c6565b600660009054906101000a90046001600160a01b03166001600160a01b031663c45a01556040518163ffffffff1660e01b815260040160206040518083038186803b158015620001ad57600080fd5b505afa158015620001c2573d6000803e3d6000fd5b505050506040513d601f19601f82011682018060405250810190620001e8919062000737565b6001600160a01b031663c9c6539630600660009054906101000a90046001600160a01b03166001600160a01b031663ad5c46486040518163ffffffff1660e01b815260040160206040518083038186803b1580156200024657600080fd5b505afa1580156200025b573d6000803e3d6000fd5b505050506040513d601f19601f8201168201806040525081019062000281919062000737565b6040516001600160e01b031960e085901b1681526001600160a01b03928316600482015291166024820152604401602060405180830381600087803b158015620002ca57600080fd5b505af1158015620002df573d6000803e3d6000fd5b505050506040513d601f19601f8201168201806040525081019062000305919062000737565b600780546001600160a01b0319166001600160a01b0392831690811782556000908152601a60209081526040808320805460ff199081166001908117909255945486168452601980845282852080548716831790556006805488168652838620805488168417905554909616845260189092528220805490931681179092559091906200039a6005546001600160a01b031690565b6001600160a01b0316815260208082019290925260409081016000908120805494151560ff199586161790553081526019909252812080548316600190811790915561dead82527fc73b1d6eda13a615b81c31830292dbbbf5fbb07f472982e223002bd83d5c3dc480549093168117909255601890620004226005546001600160a01b031690565b6001600160a01b0316815260208082019290925260409081016000908120805494151560ff199586161790553081526018909252812080548316600190811790915561dead9091527fe3ec2099396b7359df1c566dfdf9dfdb5e22fd64a6ede9d61aa32b2f63968fd68054909216179055620004b96200049f3390565b620004b383670de0b6b3a7640000620007f2565b62000518565b5050506200087d565b3390565b600580546001600160a01b038381166001600160a01b0319831681179093556040519116919082907f8be0079c531659141344cd1fd0a4f28419497f9722a3daafe3b4186f6b6457e090600090a35050565b6001600160a01b038216620005735760405162461bcd60e51b815260206004820152601f60248201527f45524332303a206d696e7420746f20746865207a65726f206164647265737300604482015260640160405180910390fd5b8060026000828254620005879190620007d7565b90915550506001600160a01b038216600081815260208181526040808320805486019055518481527fddf252ad1be2c89b69c2b068fc378daa952ba7f163c4a11628f55a4df523b3ef910160405180910390a35050565b828054620005ec9062000814565b90600052602060002090601f0160209004810192826200061057600085556200065b565b82601f106200062b57805160ff19168380011785556200065b565b828001600101855582156200065b579182015b828111156200065b5782518255916020019190600101906200063e565b50620006699291506200066d565b5090565b5b808211156200066957600081556001016200066e565b600082601f83011262000695578081fd5b81516001600160401b0380821115620006b257620006b262000867565b604051601f8301601f19908116603f01168101908282118183101715620006dd57620006dd62000867565b81604052838152602092508683858801011115620006f9578485fd5b8491505b838210156200071c5785820183015181830184015290820190620006fd565b838211156200072d57848385830101525b9695505050505050565b60006020828403121562000749578081fd5b81516001600160a01b038116811462000760578182fd5b9392505050565b6000806000606084860312156200077c578182fd5b83516001600160401b038082111562000793578384fd5b620007a18783880162000684565b94506020860151915080821115620007b7578384fd5b50620007c68682870162000684565b925050604084015190509250925092565b60008219821115620007ed57620007ed62000851565b500190565b60008160001904831182151516156200080f576200080f62000851565b500290565b600181811c908216806200082957607f821691505b602082108114156200084b57634e487b7160e01b600052602260045260246000fd5b50919050565b634e487b7160e01b600052601160045260246000fd5b634e487b7160e01b600052604160045260246000fd5b612e89806200088d6000396000f3fe60806040526004361061034a5760003560e01c80636df319be116101b9578063aacebbe3116100f6578063dd62ed3e1161009a578063ec0e59911161006c578063ec0e5991146109f0578063ee5c02a214610a06578063f2fde38b14610a26578063f8b45b0514610a4657005b8063dd62ed3e1461096b578063e0bf7fd11461098b578063e2f45605146109bb578063e8b7368d146109d157005b8063c18bc195116100d3578063c18bc195146108f5578063c8a1376e14610915578063c8c8ebe414610935578063d257b34f1461094b57005b8063aacebbe314610885578063b62496f5146108a5578063c0246668146108d557005b80638ea5220f1161015d578063a128fcf21161013a578063a128fcf2146107f9578063a457c2d71461082f578063a9059cbb1461084f578063a9a57cb21461086f57005b80638ea5220f146107a457806395d89b41146107c45780639a7a23d6146107d957005b8063730c188811610196578063730c1888146107265780637571336a1461074657806375f0a874146107665780638da5cb5b1461078657005b80636df319be146106d157806370a08231146106f1578063715018a61461071157005b806339509351116102875780634539e28a1161022b57806349bd5a5e1161020857806349bd5a5e146106615780634a62bb65146106815780635997ed4c146106a15780636d1cd8ae146106b757005b80634539e28a14610615578063457ffca21461062b57806348649e561461064b57005b806340c10f191161026457806340c10f191461059957806340db65f6146105b957806341aea9de146105cf5780634230a9ff146105ef57005b806339509351146105445780633ccfd60b146105645780633fa4d6271461057957005b806318160ddd116102ee57806323b872dd116102cb57806323b872dd146104ce5780632e82f1a0146104ee578063313ce56714610508578063365b98b21461052457005b806318160ddd1461046f5780631816467f1461048e578063203e727e146104ae57005b806311cd62351161032757806311cd6235146103de5780631694505e146103fd57806317dedeb61461043557806317ee69951461045557005b806306fdde0314610353578063095ea7b31461037e57806310d5de53146103ae57005b3661035157005b005b34801561035f57600080fd5b50610368610a5c565b6040516103759190612bfb565b60405180910390f35b34801561038a57600080fd5b5061039e610399366004612aeb565b610aee565b6040519015158152602001610375565b3480156103ba57600080fd5b5061039e6103c9366004612a07565b60196020526000908152604090205460ff1681565b3480156103ea57600080fd5b5060115461039e90610100900460ff1681565b34801561040957600080fd5b5060065461041d906001600160a01b031681565b6040516001600160a01b039091168152602001610375565b34801561044157600080fd5b50610351610450366004612a3f565b610b06565b34801561046157600080fd5b5060115461039e9060ff1681565b34801561047b57600080fd5b506002545b604051908152602001610375565b34801561049a57600080fd5b506103516104a9366004612a07565b610ba2565b3480156104ba57600080fd5b506103516104c9366004612b30565b610bcc565b3480156104da57600080fd5b5061039e6104e9366004612a77565b610c87565b3480156104fa57600080fd5b50600e5461039e9060ff1681565b34801561051457600080fd5b5060405160128152602001610375565b34801561053057600080fd5b5061041d61053f366004612b30565b610cab565b34801561055057600080fd5b5061039e61055f366004612aeb565b610cd5565b34801561057057600080fd5b50610351610cf7565b34801561058557600080fd5b50610351610594366004612b16565b610dc5565b3480156105a557600080fd5b506103516105b4366004612aeb565b610de7565b3480156105c557600080fd5b5061048060145481565b3480156105db57600080fd5b5061039e6105ea366004612b16565b610df9565b3480156105fb57600080fd5b50601d5461041d906201000090046001600160a01b031681565b34801561062157600080fd5b5061048060165481565b34801561063757600080fd5b50610351610646366004612bc1565b610e20565b34801561065757600080fd5b5061048060125481565b34801561066d57600080fd5b5060075461041d906001600160a01b031681565b34801561068d57600080fd5b5060115461039e9062010000900460ff1681565b3480156106ad57600080fd5b5061048060175481565b3480156106c357600080fd5b50601d5461039e9060ff1681565b3480156106dd57600080fd5b50601f5461041d906001600160a01b031681565b3480156106fd57600080fd5b5061048061070c366004612a07565b610e76565b34801561071d57600080fd5b50610351610e91565b34801561073257600080fd5b50610351610741366004612b60565b610ea5565b34801561075257600080fd5b50610351610761366004612ab7565b610fac565b34801561077257600080fd5b5060085461041d906001600160a01b031681565b34801561079257600080fd5b506005546001600160a01b031661041d565b3480156107b057600080fd5b5060095461041d906001600160a01b031681565b3480156107d057600080fd5b50610368610fdf565b3480156107e557600080fd5b506103516107f4366004612ab7565b610fee565b34801561080557600080fd5b5061041d610814366004612a07565b601b602052600090815260409020546001600160a01b031681565b34801561083b57600080fd5b5061039e61084a366004612aeb565b611021565b34801561085b57600080fd5b5061039e61086a366004612aeb565b61109c565b34801561087b57600080fd5b5061048060155481565b34801561089157600080fd5b506103516108a0366004612a07565b6110aa565b3480156108b157600080fd5b5061039e6108c0366004612a07565b601a6020526000908152604090205460ff1681565b3480156108e157600080fd5b506103516108f0366004612ab7565b6110d4565b34801561090157600080fd5b50610351610910366004612b30565b611107565b34801561092157600080fd5b50601e5461041d906001600160a01b031681565b34801561094157600080fd5b50610480600b5481565b34801561095757600080fd5b5061039e610966366004612b30565b6111b6565b34801561097757600080fd5b50610480610986366004612a3f565b6112e5565b34801561099757600080fd5b5061039e6109a6366004612a07565b60186020526000908152604090205460ff1681565b3480156109c757600080fd5b50610480600a5481565b3480156109dd57600080fd5b50601d5461039e90610100900460ff1681565b3480156109fc57600080fd5b5061048060135481565b348015610a1257600080fd5b50610351610a21366004612b16565b611310565b348015610a3257600080fd5b50610351610a41366004612a07565b61132b565b348015610a5257600080fd5b50610480600c5481565b606060038054610a6b90612da8565b80601f0160208091040260200160405190810160405280929190818152602001828054610a9790612da8565b8015610ae45780601f10610ab957610100808354040283529160200191610ae4565b820191906000526020600020905b815481529060010190602001808311610ac757829003601f168201915b5050505050905090565b600033610afc81858561149c565b5060019392505050565b610b0e6115c1565b6001600160a01b03821615801590610b2e57506001600160a01b03811615155b610b745760405162461bcd60e51b815260206004820152601260248201527176616c69642075736572206164647265737360701b60448201526064015b60405180910390fd5b6001600160a01b039182166000908152601b6020526040902080546001600160a01b03191691909216179055565b610baa6115c1565b600980546001600160a01b0319166001600160a01b0392909216919091179055565b610bd46115c1565b670de0b6b3a76400006103e8610be960025490565b610bf4906001612d72565b610bfe9190612d5e565b610c089190612d5e565b811015610c6f5760405162461bcd60e51b815260206004820152602f60248201527f43616e6e6f7420736574206d61785472616e73616374696f6e416d6f756e742060448201526e6c6f776572207468616e20302e312560881b6064820152608401610b6b565b610c8181670de0b6b3a7640000612d72565b600b5550565b600033610c9585828561161b565b610ca0858585611695565b506001949350505050565b601c8181548110610cbb57600080fd5b6000918252602090912001546001600160a01b0316905081565b600033610afc818585610ce883836112e5565b610cf29190612d46565b61149c565b610cff6115c1565b6000610d0a30610e76565b905060008111610d5c5760405162461bcd60e51b815260206004820152601860248201527f6973206e6f742076616c696420746f20776974686472617700000000000000006044820152606401610b6b565b610d6630826120e7565b610d81610d7b6005546001600160a01b031690565b82612211565b4715610dc2576005546040516001600160a01b03909116904780156108fc02916000818181858888f19350505050158015610dc0573d6000803e3d6000fd5b505b50565b610dcd6115c1565b601180549115156101000261ff0019909216919091179055565b610def6115c1565b610dc08282612211565b6000610e036115c1565b506011805462ff000019166201000083151502179055805b919050565b610e286115c1565b60138590556014849055601583905560168290556017819055828282610e4e8789612d46565b610e589190612d46565b610e629190612d46565b610e6c9190612d46565b6012555050505050565b6001600160a01b031660009081526020819052604090205490565b610e996115c1565b610ea360006122d1565b565b610ead6115c1565b610258831015610f1b5760405162461bcd60e51b815260206004820152603360248201527f63616e6e6f7420736574206275796261636b206d6f7265206f6674656e207468604482015272616e206576657279203130206d696e7574657360681b6064820152608401610b6b565b6103e88211158015610f2b575060015b610f905760405162461bcd60e51b815260206004820152603060248201527f4d75737420736574206175746f204c50206275726e2070657263656e7420626560448201526f747765656e20302520616e642031302560801b6064820152608401610b6b565b600f92909255600d55600e805460ff1916911515919091179055565b610fb46115c1565b6001600160a01b03919091166000908152601960205260409020805460ff1916911515919091179055565b606060048054610a6b90612da8565b610ff66115c1565b6001600160a01b03919091166000908152601a60205260409020805460ff1916911515919091179055565b6000338161102f82866112e5565b90508381101561108f5760405162461bcd60e51b815260206004820152602560248201527f45524332303a2064656372656173656420616c6c6f77616e63652062656c6f77604482015264207a65726f60d81b6064820152608401610b6b565b610ca0828686840361149c565b600033610afc818585611695565b6110b26115c1565b600880546001600160a01b0319166001600160a01b0392909216919091179055565b6110dc6115c1565b6001600160a01b03919091166000908152601860205260409020805460ff1916911515919091179055565b61110f6115c1565b670de0b6b3a76400006103e861112460025490565b61112f906005612d72565b6111399190612d5e565b6111439190612d5e565b81101561119e5760405162461bcd60e51b8152602060048201526024808201527f43616e6e6f7420736574206d617857616c6c6574206c6f776572207468616e20604482015263302e352560e01b6064820152608401610b6b565b6111b081670de0b6b3a7640000612d72565b600c5550565b60006111c06115c1565b620186a06111cd60025490565b6111d8906001612d72565b6111e29190612d5e565b82101561124f5760405162461bcd60e51b815260206004820152603560248201527f5377617020616d6f756e742063616e6e6f74206265206c6f776572207468616e60448201527410181718181892903a37ba30b61039bab838363c9760591b6064820152608401610b6b565b6103e861125b60025490565b611266906005612d72565b6112709190612d5e565b8211156112dc5760405162461bcd60e51b815260206004820152603460248201527f5377617020616d6f756e742063616e6e6f742062652068696768657220746861604482015273371018171a92903a37ba30b61039bab838363c9760611b6064820152608401610b6b565b50600a55600190565b6001600160a01b03918216600090815260016020908152604080832093909416825291909152205490565b6113186115c1565b6011805460ff1916911515919091179055565b6113336115c1565b6001600160a01b0381166113985760405162461bcd60e51b815260206004820152602660248201527f4f776e61626c653a206e6577206f776e657220697320746865207a65726f206160448201526564647265737360d01b6064820152608401610b6b565b6000601860006113b06005546001600160a01b031690565b6001600160a01b03908116825260208083019390935260409182016000908120805495151560ff19968716179055908516815260189092528120805490921660011790915560198161140a6005546001600160a01b031690565b6001600160a01b03908116825260208083019390935260409182016000908120805495151560ff19968716179055908516815260199092528120805490921660011790915561146461070c6005546001600160a01b031690565b905061148161147b6005546001600160a01b031690565b826120e7565b61148b8282612211565b611494826122d1565b505042601055565b6001600160a01b0383166114fe5760405162461bcd60e51b8152602060048201526024808201527f45524332303a20617070726f76652066726f6d20746865207a65726f206164646044820152637265737360e01b6064820152608401610b6b565b6001600160a01b03821661155f5760405162461bcd60e51b815260206004820152602260248201527f45524332303a20617070726f766520746f20746865207a65726f206164647265604482015261737360f01b6064820152608401610b6b565b6001600160a01b0383811660008181526001602090815260408083209487168084529482529182902085905590518481527f8c5be1e5ebec7d5bd14f71427d1e84f3dd0314c0f7b2291e5b200ac8c7c3b92591015b60405180910390a3505050565b6005546001600160a01b03163314610ea35760405162461bcd60e51b815260206004820181905260248201527f4f776e61626c653a2063616c6c6572206973206e6f7420746865206f776e65726044820152606401610b6b565b600061162784846112e5565b9050600019811461168f57818110156116825760405162461bcd60e51b815260206004820152601d60248201527f45524332303a20696e73756666696369656e7420616c6c6f77616e63650000006044820152606401610b6b565b61168f848484840361149c565b50505050565b6001600160a01b0383166116bb5760405162461bcd60e51b8152600401610b6b90612c91565b6001600160a01b0382166116e15760405162461bcd60e51b8152600401610b6b90612c4e565b62015180610e106116f382600c612d72565b6116fe90601e612d72565b61170983601f612d72565b6117139190612d46565b421015801561172c5750600754600160a01b900460ff16155b80156117385750600047115b1561174557611745610cf7565b60115460ff1615611a3a576000600761175e8442612d5e565b611769906004612d46565b6117739190612dfe565b9050600047118015611783575080155b80156117975750601d54610100900460ff16155b1561187e57601c546000906117ab90612323565b90506000601c82815481106117d057634e487b7160e01b600052603260045260246000fd5b6000918252602090912001546001600160a01b031690506127106117f360025490565b6117fe906019612d72565b6118089190612d5e565b61181182610e76565b111561186c5760006064611826476032612d72565b6118309190612d5e565b6040519091506001600160a01b0383169082156108fc029083906000818181858888f19350505050158015611869573d6000803e3d6000fd5b50505b5050601d805461ff0019166101001790555b806001141561189357601d805461ff00191690555b600060186118a18442612d5e565b6118ab9190612dfe565b90506000471180156118c7575080600a14806118c75750806016145b80156118d65750601d5460ff16155b15611a1857601d546201000090046001600160a01b03161561194857601d546201000090046001600160a01b03166108fc6064611914476005612d72565b61191e9190612d5e565b6040518115909202916000818181858888f19350505050158015611946573d6000803e3d6000fd5b505b601e546001600160a01b0316156119a957601e546001600160a01b03166108fc6064611975476003612d72565b61197f9190612d5e565b6040518115909202916000818181858888f193505050501580156119a7573d6000803e3d6000fd5b505b601f546001600160a01b031615611a0a57601f546001600160a01b03166108fc60646119d6476002612d72565b6119e09190612d5e565b6040518115909202916000818181858888f19350505050158015611a08573d6000803e3d6000fd5b505b601d805460ff191660011790555b80600b1480611a275750806017145b15611a3757601d805460ff191690555b50505b6001600160a01b0385166000908152601a602052604090205460ff16158015611a7c57506001600160a01b0384166000908152601a602052604090205460ff16155b8015611a9657506006546001600160a01b03868116911614155b8015611ab057506006546001600160a01b03858116911614155b8015611ac557506001600160a01b0385163014155b8015611ada57506001600160a01b0384163014155b15611b2d576001600160a01b038481166000908152601b602052604090205416611b2d576001600160a01b038481166000908152601b6020526040902080546001600160a01b0319169187169190911790555b6001600160a01b0385166000908152601a602052604090205460ff168015611b6357506005546001600160a01b03858116911614155b8015611b7857506001600160a01b0384163014155b8015611b8f57506001600160a01b03841661dead14155b15611d4157601154610100900460ff1615611c0f576000611baf85610e76565b11611c0f5760405162461bcd60e51b815260206004820152602a60248201527f796f7520646f6e2774206861766520616e79207065726d697373696f6e20746f60448201526910313abc903a37b5b2b760b11b6064820152608401610b6b565b6001600160a01b0385166000908152601a602052604090205460ff1615611d4157601e8054601f80546001600160a01b038084166001600160a01b031992831617909255601d8054620100008082048516939095169290921790945562010000600160b01b031916908716909102179055600160005b601c54811015611cec57856001600160a01b0316601c8281548110611cba57634e487b7160e01b600052603260045260246000fd5b6000918252602090912001546001600160a01b03161415611cda57600091505b80611ce481612de3565b915050611c85565b508015611d3f57601c80546001810182556000919091527f0e4562a10381dec21b205ed72637e6b1b523bdd0e4d4d50af5cd23dd4500a2110180546001600160a01b0319166001600160a01b0387161790555b505b60115462010000900460ff1615611e82576001600160a01b03851660009081526019602052604090205460ff16158015611db757506001600160a01b0385166000908152601a602052604090205460ff168015611db757506001600160a01b03841660009081526019602052604090205460ff16155b15611e8257600b54831115611e285760405162461bcd60e51b815260206004820152603160248201527f7472616e7366657220616d6f756e74206578636565647320746865206d6178546044820152703930b739b0b1ba34b7b720b6b7bab73a1760791b6064820152608401610b6b565b600c54611e3485610e76565b611e3e9085612d46565b1115611e825760405162461bcd60e51b815260206004820152601360248201527213585e081dd85b1b195d08195e18d959591959606a1b6044820152606401610b6b565b6000611e8d30610e76565b600a5490915081108015908190611eae5750600754600160a01b900460ff16155b8015611ed357506001600160a01b0387166000908152601a602052604090205460ff16155b8015611ef857506001600160a01b03871660009081526018602052604090205460ff16155b8015611f1d57506001600160a01b03861660009081526018602052604090205460ff16155b15611f4b576007805460ff60a01b1916600160a01b179055611f3d612342565b6007805460ff60a01b191690555b600754600160a01b900460ff16158015611f7d57506001600160a01b0386166000908152601a602052604090205460ff165b8015611f8b5750600e5460ff165b8015611fa65750600f54601054611fa29190612d46565b4210155b8015611fcb57506001600160a01b03871660009081526018602052604090205460ff16155b15611fda57611fd86124e4565b505b6007546001600160a01b03881660009081526018602052604090205460ff600160a01b90920482161591168061202857506001600160a01b03871660009081526018602052604090205460ff165b15612031575060005b80156120d257600061205960646120536012548a61265c90919063ffffffff16565b9061266f565b905080156120c457600061207e6012546120536016548561265c90919063ffffffff16565b6001600160a01b03808b166000908152601b60205260409020549192506120a8918c91168361267b565b60006120b48284612d91565b90506120c18b308361267b565b50505b6120ce8188612d91565b9650505b6120dd88888861267b565b5050505050505050565b6001600160a01b0382166121475760405162461bcd60e51b815260206004820152602160248201527f45524332303a206275726e2066726f6d20746865207a65726f206164647265736044820152607360f81b6064820152608401610b6b565b6001600160a01b038216600090815260208190526040902054818110156121bb5760405162461bcd60e51b815260206004820152602260248201527f45524332303a206275726e20616d6f756e7420657863656564732062616c616e604482015261636560f01b6064820152608401610b6b565b6001600160a01b0383166000818152602081815260408083208686039055600280548790039055518581529192917fddf252ad1be2c89b69c2b068fc378daa952ba7f163c4a11628f55a4df523b3ef91016115b4565b6001600160a01b0382166122675760405162461bcd60e51b815260206004820152601f60248201527f45524332303a206d696e7420746f20746865207a65726f2061646472657373006044820152606401610b6b565b80600260008282546122799190612d46565b90915550506001600160a01b038216600081815260208181526040808320805486019055518481527fddf252ad1be2c89b69c2b068fc378daa952ba7f163c4a11628f55a4df523b3ef910160405180910390a3610dc0565b600580546001600160a01b038381166001600160a01b0319831681179093556040519116919082907f8be0079c531659141344cd1fd0a4f28419497f9722a3daafe3b4186f6b6457e090600090a35050565b600081612331600143612d91565b61233c919040612dfe565b92915050565b600061234d30610e76565b9050600061237160026120536012546120536014548761265c90919063ffffffff16565b9050600061237f83836127a5565b90504761238b826127b1565b600061239747836127a5565b905060006123b66012546120536013548561265c90919063ffffffff16565b905060006123d56012546120536017548661265c90919063ffffffff16565b905060006123f46012546120536015548761265c90919063ffffffff16565b9050600061240e82612408858189896127a5565b906127a5565b6009546040519192506001600160a01b03169084156108fc029085906000818181858888f19350505050158015612449573d6000803e3d6000fd5b506014541561249e5761245c8882612936565b60408051888152602081018390529081018990527f17bbfb9a6069321b6ded73bd96327c9e6b7212a5cd51ff219cd61370acafb5619060600160405180910390a15b6008546040516001600160a01b039091169085156108fc029086906000818181858888f193505050501580156124d8573d6000803e3d6000fd5b50505050505050505050565b426010556007546040516370a0823160e01b81526001600160a01b039091166004820152600090819030906370a082319060240160206040518083038186803b15801561253057600080fd5b505afa158015612544573d6000803e3d6000fd5b505050506040513d601f19601f820116820180604052508101906125689190612b48565b9050600081116125b25760405162461bcd60e51b81526020600482015260156024820152747468657265206973206e6f204c5042616c616e636560581b6044820152606401610b6b565b60006125cf612710612053600d548561265c90919063ffffffff16565b905080156125f0576007546125f0906001600160a01b031661dead8361267b565b6007546040805160016209351760e01b0319815290516001600160a01b0390921691829163fff6cae991600480830192600092919082900301818387803b15801561263a57600080fd5b505af115801561264e573d6000803e3d6000fd5b505050506001935050505090565b60006126688284612d72565b9392505050565b60006126688284612d5e565b6001600160a01b0383166126a15760405162461bcd60e51b8152600401610b6b90612c91565b6001600160a01b0382166126c75760405162461bcd60e51b8152600401610b6b90612c4e565b6001600160a01b0383166000908152602081905260409020548181101561273f5760405162461bcd60e51b815260206004820152602660248201527f45524332303a207472616e7366657220616d6f756e7420657863656564732062604482015265616c616e636560d01b6064820152608401610b6b565b6001600160a01b03848116600081815260208181526040808320878703905593871680835291849020805487019055925185815290927fddf252ad1be2c89b69c2b068fc378daa952ba7f163c4a11628f55a4df523b3ef910160405180910390a361168f565b60006126688284612d91565b60408051600280825260608201835260009260208301908036833701905050905030816000815181106127f457634e487b7160e01b600052603260045260246000fd5b6001600160a01b03928316602091820292909201810191909152600654604080516315ab88c960e31b81529051919093169263ad5c4648926004808301939192829003018186803b15801561284857600080fd5b505afa15801561285c573d6000803e3d6000fd5b505050506040513d601f19601f820116820180604052508101906128809190612a23565b816001815181106128a157634e487b7160e01b600052603260045260246000fd5b6001600160a01b0392831660209182029290920101526006546128c7913091168461149c565b60065460405163791ac94760e01b81526001600160a01b039091169063791ac94790612900908590600090869030904290600401612cd6565b600060405180830381600087803b15801561291a57600080fd5b505af115801561292e573d6000803e3d6000fd5b505050505050565b60065461294e9030906001600160a01b03168461149c565b60065460405163f305d71960e01b815230600482015260248101849052600060448201819052606482015261dead60848201524260a48201526001600160a01b039091169063f305d71990839060c4016060604051808303818588803b1580156129b757600080fd5b505af11580156129cb573d6000803e3d6000fd5b50505050506040513d601f19601f820116820180604052508101906129f09190612b94565b5050505050565b80358015158114610e1b57600080fd5b600060208284031215612a18578081fd5b813561266881612e3e565b600060208284031215612a34578081fd5b815161266881612e3e565b60008060408385031215612a51578081fd5b8235612a5c81612e3e565b91506020830135612a6c81612e3e565b809150509250929050565b600080600060608486031215612a8b578081fd5b8335612a9681612e3e565b92506020840135612aa681612e3e565b929592945050506040919091013590565b60008060408385031215612ac9578182fd5b8235612ad481612e3e565b9150612ae2602084016129f7565b90509250929050565b60008060408385031215612afd578182fd5b8235612b0881612e3e565b946020939093013593505050565b600060208284031215612b27578081fd5b612668826129f7565b600060208284031215612b41578081fd5b5035919050565b600060208284031215612b59578081fd5b5051919050565b600080600060608486031215612b74578283fd5b8335925060208401359150612b8b604085016129f7565b90509250925092565b600080600060608486031215612ba8578283fd5b8351925060208401519150604084015190509250925092565b600080600080600060a08688031215612bd8578081fd5b505083359560208501359550604085013594606081013594506080013592509050565b6000602080835283518082850152825b81811015612c2757858101830151858201604001528201612c0b565b81811115612c385783604083870101525b50601f01601f1916929092016040019392505050565b60208082526023908201527f45524332303a207472616e7366657220746f20746865207a65726f206164647260408201526265737360e81b606082015260800190565b60208082526025908201527f45524332303a207472616e736665722066726f6d20746865207a65726f206164604082015264647265737360d81b606082015260800190565b600060a082018783526020878185015260a0604085015281875180845260c0860191508289019350845b81811015612d255784516001600160a01b031683529383019391830191600101612d00565b50506001600160a01b03969096166060850152505050608001529392505050565b60008219821115612d5957612d59612e12565b500190565b600082612d6d57612d6d612e28565b500490565b6000816000190483118215151615612d8c57612d8c612e12565b500290565b600082821015612da357612da3612e12565b500390565b600181811c90821680612dbc57607f821691505b60208210811415612ddd57634e487b7160e01b600052602260045260246000fd5b50919050565b6000600019821415612df757612df7612e12565b5060010190565b600082612e0d57612e0d612e28565b500690565b634e487b7160e01b600052601160045260246000fd5b634e487b7160e01b600052601260045260246000fd5b6001600160a01b0381168114610dc257600080fdfea26469706673582212200f3c3fd232efa061ef56a92bf9b3e4224a4d3a8dfdc764cbba24b209b101da3d64736f6c63430008040033",
  "linkReferences": {},
  "deployedLinkReferences": {}
}