{
  "_format": "hh-sol-artifact-1",
  "contractName": "MigrateToFritzV2",
  "sourceName": "contracts/VIP/MigrateContract.sol",
  "abi": [
    {
      "inputs": [],
      "stateMutability": "nonpayable",
      "type": "constructor"
    },
    {
      "anonymous": false,
      "inputs": [
        {
          "indexed": true,
          "internalType": "address",
          "name": "previousOwner",
          "type": "address"
        },
        {
          "indexed": true,
          "internalType": "address",
          "name": "newOwner",
          "type": "address"
        }
      ],
      "name": "OwnershipTransferred",
      "type": "event"
    },
    {
      "inputs": [],
      "name": "FritzV1",
      "outputs": [
        {
          "internalType": "contract FritzTheCat",
          "name": "",
          "type": "address"
        }
      ],
      "stateMutability": "view",
      "type": "function"
    },
    {
      "inputs": [],
      "name": "FritzV2",
      "outputs": [
        {
          "internalType": "contract FritzTheCoin",
          "name": "",
          "type": "address"
        }
      ],
      "stateMutability": "view",
      "type": "function"
    },
    {
      "inputs": [
        {
          "internalType": "uint256",
          "name": "",
          "type": "uint256"
        }
      ],
      "name": "claim_list",
      "outputs": [
        {
          "internalType": "address",
          "name": "addr",
          "type": "address"
        },
        {
          "internalType": "uint256",
          "name": "amount",
          "type": "uint256"
        }
      ],
      "stateMutability": "view",
      "type": "function"
    },
    {
      "inputs": [],
      "name": "migrateToFrtizV2",
      "outputs": [],
      "stateMutability": "nonpayable",
      "type": "function"
    },
    {
      "inputs": [],
      "name": "owner",
      "outputs": [
        {
          "internalType": "address",
          "name": "",
          "type": "address"
        }
      ],
      "stateMutability": "view",
      "type": "function"
    },
    {
      "inputs": [],
      "name": "registerClaim",
      "outputs": [],
      "stateMutability": "nonpayable",
      "type": "function"
    },
    {
      "inputs": [],
      "name": "renounceOwnership",
      "outputs": [],
      "stateMutability": "nonpayable",
      "type": "function"
    },
    {
      "inputs": [],
      "name": "targetWallet",
      "outputs": [
        {
          "internalType": "address",
          "name": "",
          "type": "address"
        }
      ],
      "stateMutability": "view",
      "type": "function"
    },
    {
      "inputs": [
        {
          "internalType": "address",
          "name": "newOwner",
          "type": "address"
        }
      ],
      "name": "transferOwnership",
      "outputs": [],
      "stateMutability": "nonpayable",
      "type": "function"
    }
  ],
  "bytecode": "0x6080604052600180546001600160a01b0319908116737f398558001cad9671aaefb7f507a432ddea3c1317909155600280548216732167b37d2f0a584f60a8c1f20bc46a9a54ca9d0917905560038054909116739fd366275d6cc2ca63517c91335514e152b059a5179055600060045534801561007b57600080fd5b506100853361008a565b6100da565b600080546001600160a01b038381166001600160a01b0319831681178455604051919092169283917f8be0079c531659141344cd1fd0a4f28419497f9722a3daafe3b4186f6b6457e09190a35050565b610766806100e96000396000f3fe608060405234801561001057600080fd5b50600436106100935760003560e01c80638da5cb5b116100665780638da5cb5b1461012c5780639d4f84fc1461013d578063b92620bd14610145578063e3bad0fb14610158578063f2fde38b1461016b57600080fd5b806304e89cfb1461009857806321763f65146100ef578063374c760f1461011a578063715018a614610124575b600080fd5b6100cb6100a63660046106d9565b600560205260009081526040902080546001909101546001600160a01b039091169082565b604080516001600160a01b0390931683526020830191909152015b60405180910390f35b600154610102906001600160a01b031681565b6040516001600160a01b0390911681526020016100e6565b61012261017e565b005b6101226102f9565b6000546001600160a01b0316610102565b61012261030d565b600354610102906001600160a01b031681565b600254610102906001600160a01b031681565b61012261017936600461068b565b61056b565b6101866105e1565b60005b6004548110156102f657600081815260056020526040902060010154156102e45760018054600083815260056020526040908190208054600354919094015491516323b872dd60e01b81526001600160a01b039485166004820152908416602482015260448101919091529116906323b872dd90606401602060405180830381600087803b15801561021a57600080fd5b505af115801561022e573d6000803e3d6000fd5b505050506040513d601f19601f8201168201806040525081019061025291906106b9565b5060025460008281526005602052604090819020805460019091015491516340c10f1960e01b81526001600160a01b0391821660048201526024810192909252909116906340c10f1990604401600060405180830381600087803b1580156102b957600080fd5b505af11580156102cd573d6000803e3d6000fd5b505050600082815260056020526040812060010155505b806102ee81610709565b915050610189565b50565b6103016105e1565b61030b600061063b565b565b6001546040516370a0823160e01b81523360048201526000916001600160a01b0316906370a082319060240160206040518083038186803b15801561035157600080fd5b505afa158015610365573d6000803e3d6000fd5b505050506040513d601f19601f8201168201806040525081019061038991906106f1565b116103e75760405162461bcd60e51b8152602060048201526024808201527f467269747a20746f6b656e20697320746f6f206d75636820666f722073656e6460448201526334b7339760e11b60648201526084015b60405180910390fd5b60005b6004548110156104a1576000818152600560205260409020546001600160a01b031633141561048f576000818152600560205260409020600101541561048f5760405162461bcd60e51b815260206004820152603460248201527f4e6f7720746865726520697320616e6f7468657220636c61696d696e672072656044820152731c5d595cdd081bdb881e5bdd5c881dd85b1b195d60621b60648201526084016103de565b8061049981610709565b9150506103ea565b50600480546000908152600560205260409081902080546001600160a01b0319163390811790915560015491516370a0823160e01b8152928301526001600160a01b0316906370a082319060240160206040518083038186803b15801561050757600080fd5b505afa15801561051b573d6000803e3d6000fd5b505050506040513d601f19601f8201168201806040525081019061053f91906106f1565b6004805460009081526005602052604081206001019290925580549161056483610709565b9190505550565b6105736105e1565b6001600160a01b0381166105d85760405162461bcd60e51b815260206004820152602660248201527f4f776e61626c653a206e6577206f776e657220697320746865207a65726f206160448201526564647265737360d01b60648201526084016103de565b6102f68161063b565b6000546001600160a01b0316331461030b5760405162461bcd60e51b815260206004820181905260248201527f4f776e61626c653a2063616c6c6572206973206e6f7420746865206f776e657260448201526064016103de565b600080546001600160a01b038381166001600160a01b0319831681178455604051919092169283917f8be0079c531659141344cd1fd0a4f28419497f9722a3daafe3b4186f6b6457e09190a35050565b60006020828403121561069c578081fd5b81356001600160a01b03811681146106b2578182fd5b9392505050565b6000602082840312156106ca578081fd5b815180151581146106b2578182fd5b6000602082840312156106ea578081fd5b5035919050565b600060208284031215610702578081fd5b5051919050565b600060001982141561072957634e487b7160e01b81526011600452602481fd5b506001019056fea2646970667358221220a33162a331abff40dd8d885ded440598989bdce76949f6d7ac599b6867cb5ee364736f6c63430008040033",
  "linkReferences": {},
  "deployedLinkReferences": {}
}