{
  "_format": "hh-sol-artifact-1",
  "contractName": "MigrateToFritzV2",
  "sourceName": "contracts/VIP/MigrateContract.sol",
  "abi": [
    {
      "inputs": [],
      "stateMutability": "nonpayable",
      "type": "constructor"
    },
    {
      "anonymous": false,
      "inputs": [
        {
          "indexed": true,
          "internalType": "address",
          "name": "previousOwner",
          "type": "address"
        },
        {
          "indexed": true,
          "internalType": "address",
          "name": "newOwner",
          "type": "address"
        }
      ],
      "name": "OwnershipTransferred",
      "type": "event"
    },
    {
      "inputs": [],
      "name": "FritzV2",
      "outputs": [
        {
          "internalType": "contract FritzTheCoin",
          "name": "",
          "type": "address"
        }
      ],
      "stateMutability": "view",
      "type": "function"
    },
    {
      "inputs": [
        {
          "internalType": "address",
          "name": "updateAddr",
          "type": "address"
        }
      ],
      "name": "changeTokenContract",
      "outputs": [],
      "stateMutability": "nonpayable",
      "type": "function"
    },
    {
      "inputs": [
        {
          "internalType": "address",
          "name": "",
          "type": "address"
        }
      ],
      "name": "claim_list",
      "outputs": [
        {
          "internalType": "bool",
          "name": "",
          "type": "bool"
        }
      ],
      "stateMutability": "view",
      "type": "function"
    },
    {
      "inputs": [
        {
          "internalType": "uint256",
          "name": "amount",
          "type": "uint256"
        }
      ],
      "name": "migrateToFrtizV2",
      "outputs": [],
      "stateMutability": "nonpayable",
      "type": "function"
    },
    {
      "inputs": [],
      "name": "owner",
      "outputs": [
        {
          "internalType": "address",
          "name": "",
          "type": "address"
        }
      ],
      "stateMutability": "view",
      "type": "function"
    },
    {
      "inputs": [],
      "name": "renounceOwnership",
      "outputs": [],
      "stateMutability": "nonpayable",
      "type": "function"
    },
    {
      "inputs": [
        {
          "internalType": "address",
          "name": "newOwner",
          "type": "address"
        }
      ],
      "name": "transferOwnership",
      "outputs": [],
      "stateMutability": "nonpayable",
      "type": "function"
    }
  ],
  "bytecode": "0x6080604052600180546001600160a01b031916730c57496bec931fcdf41ccfd8256514a933ea0b6617905534801561003657600080fd5b5061004033610045565b610095565b600080546001600160a01b038381166001600160a01b0319831681178455604051919092169283917f8be0079c531659141344cd1fd0a4f28419497f9722a3daafe3b4186f6b6457e09190a35050565b610540806100a46000396000f3fe608060405234801561001057600080fd5b506004361061007d5760003560e01c8063a02c1eda1161005b578063a02c1eda146100c9578063d77563c9146100fc578063e3bad0fb1461010f578063f2fde38b1461012257600080fd5b8063523aee6914610082578063715018a6146100975780638da5cb5b1461009f575b600080fd5b61009561009036600461048c565b610135565b005b61009561015f565b6000546001600160a01b03165b6040516001600160a01b0390911681526020015b60405180910390f35b6100ec6100d736600461048c565b60026020526000908152604090205460ff1681565b60405190151581526020016100c0565b61009561010a3660046104da565b610173565b6001546100ac906001600160a01b031681565b61009561013036600461048c565b610369565b61013d6103e2565b600180546001600160a01b0319166001600160a01b0392909216919091179055565b6101676103e2565b610171600061043c565b565b3360009081526002602052604090205460ff16156101ec5760405162461bcd60e51b815260206004820152602b60248201527f74686520757365722068617320616c726561647920636c61696d65642046726960448201526a747a563220746f6b656e7360a81b60648201526084015b60405180910390fd5b6001546040516370a0823160e01b81526001600160a01b039091166004820181905282916370a082319060240160206040518083038186803b15801561023157600080fd5b505afa158015610245573d6000803e3d6000fd5b505050506040513d601f19601f8201168201806040525081019061026991906104f2565b10156102c55760405162461bcd60e51b815260206004820152602560248201527f7468657265206973206e6f20656e6f75676820546f6b656e7320696e20636f6e6044820152641d1c9858dd60da1b60648201526084016101e3565b3360008181526002602052604090819020805460ff1916600190811790915554905163a9059cbb60e01b81526004810192909252602482018390526001600160a01b03169063a9059cbb90604401602060405180830381600087803b15801561032d57600080fd5b505af1158015610341573d6000803e3d6000fd5b505050506040513d601f19601f8201168201806040525081019061036591906104ba565b5050565b6103716103e2565b6001600160a01b0381166103d65760405162461bcd60e51b815260206004820152602660248201527f4f776e61626c653a206e6577206f776e657220697320746865207a65726f206160448201526564647265737360d01b60648201526084016101e3565b6103df8161043c565b50565b6000546001600160a01b031633146101715760405162461bcd60e51b815260206004820181905260248201527f4f776e61626c653a2063616c6c6572206973206e6f7420746865206f776e657260448201526064016101e3565b600080546001600160a01b038381166001600160a01b0319831681178455604051919092169283917f8be0079c531659141344cd1fd0a4f28419497f9722a3daafe3b4186f6b6457e09190a35050565b60006020828403121561049d578081fd5b81356001600160a01b03811681146104b3578182fd5b9392505050565b6000602082840312156104cb578081fd5b815180151581146104b3578182fd5b6000602082840312156104eb578081fd5b5035919050565b600060208284031215610503578081fd5b505191905056fea264697066735822122011365dc495a4c9b9ce34ce452543f97947c6ca118de3f6202f1011fcac18d17b64736f6c63430008040033",
  "linkReferences": {},
  "deployedLinkReferences": {}
}